{"contracts/amm/SimpleCPAMM.sol":{"SimpleCPAMM":{"abi":[{"inputs":[{"internalType":"address","name":"_token0","type":"address"},{"internalType":"address","name":"_token1","type":"address"},{"internalType":"uint256","name":"_r0","type":"uint256"},{"internalType":"uint256","name":"_r1","type":"uint256"}],"stateMutability":"nonpayable","type":"constructor"},{"inputs":[{"internalType":"uint256","name":"amountIn","type":"uint256"},{"internalType":"bool","name":"zeroForOne","type":"bool"}],"name":"getAmountOut","outputs":[{"internalType":"uint256","name":"","type":"uint256"}],"stateMutability":"view","type":"function"},{"inputs":[],"name":"reserve0","outputs":[{"internalType":"uint256","name":"","type":"uint256"}],"stateMutability":"view","type":"function"},{"inputs":[],"name":"reserve1","outputs":[{"internalType":"uint256","name":"","type":"uint256"}],"stateMutability":"view","type":"function"},{"inputs":[{"internalType":"uint256","name":"amountIn","type":"uint256"},{"internalType":"address","name":"tokenIn","type":"address"}],"name":"swap","outputs":[{"internalType":"bool","name":"","type":"bool"}],"stateMutability":"nonpayable","type":"function"},{"inputs":[],"name":"token0","outputs":[{"internalType":"address","name":"","type":"address"}],"stateMutability":"view","type":"function"},{"inputs":[],"name":"token1","outputs":[{"internalType":"address","name":"","type":"address"}],"stateMutability":"view","type":"function"}],"evm":{"bytecode":{"linkReferences":{},"object":"60c06040523480156200001157600080fd5b5060405162000d5f38038062000d5f833981810160405281019062000037919062000295565b600073ffffffffffffffffffffffffffffffffffffffff168473ffffffffffffffffffffffffffffffffffffffff1614158015620000a25750600073ffffffffffffffffffffffffffffffffffffffff168373ffffffffffffffffffffffffffffffffffffffff1614155b8015620000db57508273ffffffffffffffffffffffffffffffffffffffff168473ffffffffffffffffffffffffffffffffffffffff1614155b6200011d576040517f08c379a0000000000000000000000000000000000000000000000000000000008152600401620001149062000368565b60405180910390fd5b6000821180156200012e5750600081115b62000170576040517f08c379a00000000000000000000000000000000000000000000000000000000081526004016200016790620003da565b60405180910390fd5b8373ffffffffffffffffffffffffffffffffffffffff1660808173ffffffffffffffffffffffffffffffffffffffff16815250508273ffffffffffffffffffffffffffffffffffffffff1660a08173ffffffffffffffffffffffffffffffffffffffff1681525050816000819055508060018190555050505050620003fc565b600080fd5b600073ffffffffffffffffffffffffffffffffffffffff82169050919050565b60006200022282620001f5565b9050919050565b620002348162000215565b81146200024057600080fd5b50565b600081519050620002548162000229565b92915050565b6000819050919050565b6200026f816200025a565b81146200027b57600080fd5b50565b6000815190506200028f8162000264565b92915050565b60008060008060808587031215620002b257620002b1620001f0565b5b6000620002c28782880162000243565b9450506020620002d58782880162000243565b9350506040620002e8878288016200027e565b9250506060620002fb878288016200027e565b91505092959194509250565b600082825260208201905092915050565b7f62616420746f6b656e7300000000000000000000000000000000000000000000600082015250565b600062000350600a8362000307565b91506200035d8262000318565b602082019050919050565b60006020820190508181036000830152620003838162000341565b9050919050565b7f6261642072657365727665730000000000000000000000000000000000000000600082015250565b6000620003c2600c8362000307565b9150620003cf826200038a565b602082019050919050565b60006020820190508181036000830152620003f581620003b3565b9050919050565b60805160a05161092f62000430600039600081816101fb01526103600152600081816101410152610263015261092f6000f3fe608060405234801561001057600080fd5b50600436106100625760003560e01c80630dfe16811461006757806311106ee214610085578063443cb4bc146100b55780635a76f25e146100d3578063d21220a7146100f1578063d3986f081461010f575b600080fd5b61006f61013f565b60405161007c91906104dd565b60405180910390f35b61009f600480360381019061009a919061056b565b610163565b6040516100ac91906105ba565b60405180910390f35b6100bd6101ed565b6040516100ca91906105ba565b60405180910390f35b6100db6101f3565b6040516100e891906105ba565b60405180910390f35b6100f96101f9565b60405161010691906104dd565b60405180910390f35b61012960048036038101906101249190610601565b61021d565b6040516101369190610650565b60405180910390f35b7f000000000000000000000000000000000000000000000000000000000000000081565b600080830361017557600090506101e7565b81156101b357600080549050600060015490508482610194919061069a565b81866101a091906106ce565b6101aa919061073f565b925050506101e7565b6000600154905060008054905084826101cc919061069a565b81866101d891906106ce565b6101e2919061073f565b925050505b92915050565b60005481565b60015481565b7f000000000000000000000000000000000000000000000000000000000000000081565b6000808311610261576040517f08c379a0000000000000000000000000000000000000000000000000000000008152600401610258906107cd565b60405180910390fd5b7f000000000000000000000000000000000000000000000000000000000000000073ffffffffffffffffffffffffffffffffffffffff168273ffffffffffffffffffffffffffffffffffffffff160361035e576000836000546102c4919061069a565b600154856102d291906106ce565b6102dc919061073f565b9050836000808282546102ef919061069a565b9250508190555060015481111561033b576040517f08c379a000000000000000000000000000000000000000000000000000000000815260040161033290610839565b60405180910390fd5b806001600082825461034d9190610859565b925050819055506001915050610496565b7f000000000000000000000000000000000000000000000000000000000000000073ffffffffffffffffffffffffffffffffffffffff168273ffffffffffffffffffffffffffffffffffffffff160361045b576000836001546103c1919061069a565b600054856103cf91906106ce565b6103d9919061073f565b905083600160008282546103ed919061069a565b92505081905550600054811115610439576040517f08c379a000000000000000000000000000000000000000000000000000000000815260040161043090610839565b60405180910390fd5b8060008082825461044a9190610859565b925050819055506001915050610496565b6040517f08c379a000000000000000000000000000000000000000000000000000000000815260040161048d906108d9565b60405180910390fd5b92915050565b600073ffffffffffffffffffffffffffffffffffffffff82169050919050565b60006104c78261049c565b9050919050565b6104d7816104bc565b82525050565b60006020820190506104f260008301846104ce565b92915050565b600080fd5b6000819050919050565b610510816104fd565b811461051b57600080fd5b50565b60008135905061052d81610507565b92915050565b60008115159050919050565b61054881610533565b811461055357600080fd5b50565b6000813590506105658161053f565b92915050565b60008060408385031215610582576105816104f8565b5b60006105908582860161051e565b92505060206105a185828601610556565b9150509250929050565b6105b4816104fd565b82525050565b60006020820190506105cf60008301846105ab565b92915050565b6105de816104bc565b81146105e957600080fd5b50565b6000813590506105fb816105d5565b92915050565b60008060408385031215610618576106176104f8565b5b60006106268582860161051e565b9250506020610637858286016105ec565b9150509250929050565b61064a81610533565b82525050565b60006020820190506106656000830184610641565b92915050565b7f4e487b7100000000000000000000000000000000000000000000000000000000600052601160045260246000fd5b60006106a5826104fd565b91506106b0836104fd565b92508282019050808211156106c8576106c761066b565b5b92915050565b60006106d9826104fd565b91506106e4836104fd565b92508282026106f2816104fd565b915082820484148315176107095761070861066b565b5b5092915050565b7f4e487b7100000000000000000000000000000000000000000000000000000000600052601260045260246000fd5b600061074a826104fd565b9150610755836104fd565b92508261076557610764610710565b5b828204905092915050565b600082825260208201905092915050565b7f7a65726f20696e00000000000000000000000000000000000000000000000000600082015250565b60006107b7600783610770565b91506107c282610781565b602082019050919050565b600060208201905081810360008301526107e6816107aa565b9050919050565b7f696e73756666696369656e74206c697100000000000000000000000000000000600082015250565b6000610823601083610770565b915061082e826107ed565b602082019050919050565b6000602082019050818103600083015261085281610816565b9050919050565b6000610864826104fd565b915061086f836104fd565b92508282039050818111156108875761088661066b565b5b92915050565b7f62616420746f6b656e0000000000000000000000000000000000000000000000600082015250565b60006108c3600983610770565b91506108ce8261088d565b602082019050919050565b600060208201905081810360008301526108f2816108b6565b905091905056fea2646970667358221220fbcfbe2df947fe7fba4cce423e57e0ee9ee75d2bcf8bebb65df6a90a2437155164736f6c63430008140033","opcodes":"PUSH1 0xC0 PUSH1 0x40 MSTORE CALLVALUE DUP1 ISZERO PUSH3 0x11 JUMPI PUSH1 0x0 DUP1 REVERT JUMPDEST POP PUSH1 0x40 MLOAD PUSH3 0xD5F CODESIZE SUB DUP1 PUSH3 0xD5F DUP4 CODECOPY DUP2 DUP2 ADD PUSH1 0x40 MSTORE DUP2 ADD SWAP1 PUSH3 0x37 SWAP2 SWAP1 PUSH3 0x295 JUMP JUMPDEST PUSH1 0x0 PUSH20 0xFFFFFFFFFFFFFFFFFFFFFFFFFFFFFFFFFFFFFFFF AND DUP5 PUSH20 0xFFFFFFFFFFFFFFFFFFFFFFFFFFFFFFFFFFFFFFFF AND EQ ISZERO DUP1 ISZERO PUSH3 0xA2 JUMPI POP PUSH1 0x0 PUSH20 0xFFFFFFFFFFFFFFFFFFFFFFFFFFFFFFFFFFFFFFFF AND DUP4 PUSH20 0xFFFFFFFFFFFFFFFFFFFFFFFFFFFFFFFFFFFFFFFF AND EQ ISZERO JUMPDEST DUP1 ISZERO PUSH3 0xDB JUMPI POP DUP3 PUSH20 0xFFFFFFFFFFFFFFFFFFFFFFFFFFFFFFFFFFFFFFFF AND DUP5 PUSH20 0xFFFFFFFFFFFFFFFFFFFFFFFFFFFFFFFFFFFFFFFF AND EQ ISZERO JUMPDEST PUSH3 0x11D JUMPI PUSH1 0x40 MLOAD PUSH32 0x8C379A000000000000000000000000000000000000000000000000000000000 DUP2 MSTORE PUSH1 0x4 ADD PUSH3 0x114 SWAP1 PUSH3 0x368 JUMP JUMPDEST PUSH1 0x40 MLOAD DUP1 SWAP2 SUB SWAP1 REVERT JUMPDEST PUSH1 0x0 DUP3 GT DUP1 ISZERO PUSH3 0x12E JUMPI POP PUSH1 0x0 DUP2 GT JUMPDEST PUSH3 0x170 JUMPI PUSH1 0x40 MLOAD PUSH32 0x8C379A000000000000000000000000000000000000000000000000000000000 DUP2 MSTORE PUSH1 0x4 ADD PUSH3 0x167 SWAP1 PUSH3 0x3DA JUMP JUMPDEST PUSH1 0x40 MLOAD DUP1 SWAP2 SUB SWAP1 REVERT JUMPDEST DUP4 PUSH20 0xFFFFFFFFFFFFFFFFFFFFFFFFFFFFFFFFFFFFFFFF AND PUSH1 0x80 DUP2 PUSH20 0xFFFFFFFFFFFFFFFFFFFFFFFFFFFFFFFFFFFFFFFF AND DUP2 MSTORE POP POP DUP3 PUSH20 0xFFFFFFFFFFFFFFFFFFFFFFFFFFFFFFFFFFFFFFFF AND PUSH1 0xA0 DUP2 PUSH20 0xFFFFFFFFFFFFFFFFFFFFFFFFFFFFFFFFFFFFFFFF AND DUP2 MSTORE POP POP DUP2 PUSH1 0x0 DUP2 SWAP1 SSTORE POP DUP1 PUSH1 0x1 DUP2 SWAP1 SSTORE POP POP POP POP POP PUSH3 0x3FC JUMP JUMPDEST PUSH1 0x0 DUP1 REVERT JUMPDEST PUSH1 0x0 PUSH20 0xFFFFFFFFFFFFFFFFFFFFFFFFFFFFFFFFFFFFFFFF DUP3 AND SWAP1 POP SWAP2 SWAP1 POP JUMP JUMPDEST PUSH1 0x0 PUSH3 0x222 DUP3 PUSH3 0x1F5 JUMP JUMPDEST SWAP1 POP SWAP2 SWAP1 POP JUMP JUMPDEST PUSH3 0x234 DUP2 PUSH3 0x215 JUMP JUMPDEST DUP2 EQ PUSH3 0x240 JUMPI PUSH1 0x0 DUP1 REVERT JUMPDEST POP JUMP JUMPDEST PUSH1 0x0 DUP2 MLOAD SWAP1 POP PUSH3 0x254 DUP2 PUSH3 0x229 JUMP JUMPDEST SWAP3 SWAP2 POP POP JUMP JUMPDEST PUSH1 0x0 DUP2 SWAP1 POP SWAP2 SWAP1 POP JUMP JUMPDEST PUSH3 0x26F DUP2 PUSH3 0x25A JUMP JUMPDEST DUP2 EQ PUSH3 0x27B JUMPI PUSH1 0x0 DUP1 REVERT JUMPDEST POP JUMP JUMPDEST PUSH1 0x0 DUP2 MLOAD SWAP1 POP PUSH3 0x28F DUP2 PUSH3 0x264 JUMP JUMPDEST SWAP3 SWAP2 POP POP JUMP JUMPDEST PUSH1 0x0 DUP1 PUSH1 0x0 DUP1 PUSH1 0x80 DUP6 DUP8 SUB SLT ISZERO PUSH3 0x2B2 JUMPI PUSH3 0x2B1 PUSH3 0x1F0 JUMP JUMPDEST JUMPDEST PUSH1 0x0 PUSH3 0x2C2 DUP8 DUP3 DUP9 ADD PUSH3 0x243 JUMP JUMPDEST SWAP5 POP POP PUSH1 0x20 PUSH3 0x2D5 DUP8 DUP3 DUP9 ADD PUSH3 0x243 JUMP JUMPDEST SWAP4 POP POP PUSH1 0x40 PUSH3 0x2E8 DUP8 DUP3 DUP9 ADD PUSH3 0x27E JUMP JUMPDEST SWAP3 POP POP PUSH1 0x60 PUSH3 0x2FB DUP8 DUP3 DUP9 ADD PUSH3 0x27E JUMP JUMPDEST SWAP2 POP POP SWAP3 SWAP6 SWAP2 SWAP5 POP SWAP3 POP JUMP JUMPDEST PUSH1 0x0 DUP3 DUP3 MSTORE PUSH1 0x20 DUP3 ADD SWAP1 POP SWAP3 SWAP2 POP POP JUMP JUMPDEST PUSH32 0x62616420746F6B656E7300000000000000000000000000000000000000000000 PUSH1 0x0 DUP3 ADD MSTORE POP JUMP JUMPDEST PUSH1 0x0 PUSH3 0x350 PUSH1 0xA DUP4 PUSH3 0x307 JUMP JUMPDEST SWAP2 POP PUSH3 0x35D DUP3 PUSH3 0x318 JUMP JUMPDEST PUSH1 0x20 DUP3 ADD SWAP1 POP SWAP2 SWAP1 POP JUMP JUMPDEST PUSH1 0x0 PUSH1 0x20 DUP3 ADD SWAP1 POP DUP2 DUP2 SUB PUSH1 0x0 DUP4 ADD MSTORE PUSH3 0x383 DUP2 PUSH3 0x341 JUMP JUMPDEST SWAP1 POP SWAP2 SWAP1 POP JUMP JUMPDEST PUSH32 0x6261642072657365727665730000000000000000000000000000000000000000 PUSH1 0x0 DUP3 ADD MSTORE POP JUMP JUMPDEST PUSH1 0x0 PUSH3 0x3C2 PUSH1 0xC DUP4 PUSH3 0x307 JUMP JUMPDEST SWAP2 POP PUSH3 0x3CF DUP3 PUSH3 0x38A JUMP JUMPDEST PUSH1 0x20 DUP3 ADD SWAP1 POP SWAP2 SWAP1 POP JUMP JUMPDEST PUSH1 0x0 PUSH1 0x20 DUP3 ADD SWAP1 POP DUP2 DUP2 SUB PUSH1 0x0 DUP4 ADD MSTORE PUSH3 0x3F5 DUP2 PUSH3 0x3B3 JUMP JUMPDEST SWAP1 POP SWAP2 SWAP1 POP JUMP JUMPDEST PUSH1 0x80 MLOAD PUSH1 0xA0 MLOAD PUSH2 0x92F PUSH3 0x430 PUSH1 0x0 CODECOPY PUSH1 0x0 DUP2 DUP2 PUSH2 0x1FB ADD MSTORE PUSH2 0x360 ADD MSTORE PUSH1 0x0 DUP2 DUP2 PUSH2 0x141 ADD MSTORE PUSH2 0x263 ADD MSTORE PUSH2 0x92F PUSH1 0x0 RETURN INVALID PUSH1 0x80 PUSH1 0x40 MSTORE CALLVALUE DUP1 ISZERO PUSH2 0x10 JUMPI PUSH1 0x0 DUP1 REVERT JUMPDEST POP PUSH1 0x4 CALLDATASIZE LT PUSH2 0x62 JUMPI PUSH1 0x0 CALLDATALOAD PUSH1 0xE0 SHR DUP1 PUSH4 0xDFE1681 EQ PUSH2 0x67 JUMPI DUP1 PUSH4 0x11106EE2 EQ PUSH2 0x85 JUMPI DUP1 PUSH4 0x443CB4BC EQ PUSH2 0xB5 JUMPI DUP1 PUSH4 0x5A76F25E EQ PUSH2 0xD3 JUMPI DUP1 PUSH4 0xD21220A7 EQ PUSH2 0xF1 JUMPI DUP1 PUSH4 0xD3986F08 EQ PUSH2 0x10F JUMPI JUMPDEST PUSH1 0x0 DUP1 REVERT JUMPDEST PUSH2 0x6F PUSH2 0x13F JUMP JUMPDEST PUSH1 0x40 MLOAD PUSH2 0x7C SWAP2 SWAP1 PUSH2 0x4DD JUMP JUMPDEST PUSH1 0x40 MLOAD DUP1 SWAP2 SUB SWAP1 RETURN JUMPDEST PUSH2 0x9F PUSH1 0x4 DUP1 CALLDATASIZE SUB DUP2 ADD SWAP1 PUSH2 0x9A SWAP2 SWAP1 PUSH2 0x56B JUMP JUMPDEST PUSH2 0x163 JUMP JUMPDEST PUSH1 0x40 MLOAD PUSH2 0xAC SWAP2 SWAP1 PUSH2 0x5BA JUMP JUMPDEST PUSH1 0x40 MLOAD DUP1 SWAP2 SUB SWAP1 RETURN JUMPDEST PUSH2 0xBD PUSH2 0x1ED JUMP JUMPDEST PUSH1 0x40 MLOAD PUSH2 0xCA SWAP2 SWAP1 PUSH2 0x5BA JUMP JUMPDEST PUSH1 0x40 MLOAD DUP1 SWAP2 SUB SWAP1 RETURN JUMPDEST PUSH2 0xDB PUSH2 0x1F3 JUMP JUMPDEST PUSH1 0x40 MLOAD PUSH2 0xE8 SWAP2 SWAP1 PUSH2 0x5BA JUMP JUMPDEST PUSH1 0x40 MLOAD DUP1 SWAP2 SUB SWAP1 RETURN JUMPDEST PUSH2 0xF9 PUSH2 0x1F9 JUMP JUMPDEST PUSH1 0x40 MLOAD PUSH2 0x106 SWAP2 SWAP1 PUSH2 0x4DD JUMP JUMPDEST PUSH1 0x40 MLOAD DUP1 SWAP2 SUB SWAP1 RETURN JUMPDEST PUSH2 0x129 PUSH1 0x4 DUP1 CALLDATASIZE SUB DUP2 ADD SWAP1 PUSH2 0x124 SWAP2 SWAP1 PUSH2 0x601 JUMP JUMPDEST PUSH2 0x21D JUMP JUMPDEST PUSH1 0x40 MLOAD PUSH2 0x136 SWAP2 SWAP1 PUSH2 0x650 JUMP JUMPDEST PUSH1 0x40 MLOAD DUP1 SWAP2 SUB SWAP1 RETURN JUMPDEST PUSH32 0x0 DUP2 JUMP JUMPDEST PUSH1 0x0 DUP1 DUP4 SUB PUSH2 0x175 JUMPI PUSH1 0x0 SWAP1 POP PUSH2 0x1E7 JUMP JUMPDEST DUP2 ISZERO PUSH2 0x1B3 JUMPI PUSH1 0x0 DUP1 SLOAD SWAP1 POP PUSH1 0x0 PUSH1 0x1 SLOAD SWAP1 POP DUP5 DUP3 PUSH2 0x194 SWAP2 SWAP1 PUSH2 0x69A JUMP JUMPDEST DUP2 DUP7 PUSH2 0x1A0 SWAP2 SWAP1 PUSH2 0x6CE JUMP JUMPDEST PUSH2 0x1AA SWAP2 SWAP1 PUSH2 0x73F JUMP JUMPDEST SWAP3 POP POP POP PUSH2 0x1E7 JUMP JUMPDEST PUSH1 0x0 PUSH1 0x1 SLOAD SWAP1 POP PUSH1 0x0 DUP1 SLOAD SWAP1 POP DUP5 DUP3 PUSH2 0x1CC SWAP2 SWAP1 PUSH2 0x69A JUMP JUMPDEST DUP2 DUP7 PUSH2 0x1D8 SWAP2 SWAP1 PUSH2 0x6CE JUMP JUMPDEST PUSH2 0x1E2 SWAP2 SWAP1 PUSH2 0x73F JUMP JUMPDEST SWAP3 POP POP POP JUMPDEST SWAP3 SWAP2 POP POP JUMP JUMPDEST PUSH1 0x0 SLOAD DUP2 JUMP JUMPDEST PUSH1 0x1 SLOAD DUP2 JUMP JUMPDEST PUSH32 0x0 DUP2 JUMP JUMPDEST PUSH1 0x0 DUP1 DUP4 GT PUSH2 0x261 JUMPI PUSH1 0x40 MLOAD PUSH32 0x8C379A000000000000000000000000000000000000000000000000000000000 DUP2 MSTORE PUSH1 0x4 ADD PUSH2 0x258 SWAP1 PUSH2 0x7CD JUMP JUMPDEST PUSH1 0x40 MLOAD DUP1 SWAP2 SUB SWAP1 REVERT JUMPDEST PUSH32 0x0 PUSH20 0xFFFFFFFFFFFFFFFFFFFFFFFFFFFFFFFFFFFFFFFF AND DUP3 PUSH20 0xFFFFFFFFFFFFFFFFFFFFFFFFFFFFFFFFFFFFFFFF AND SUB PUSH2 0x35E JUMPI PUSH1 0x0 DUP4 PUSH1 0x0 SLOAD PUSH2 0x2C4 SWAP2 SWAP1 PUSH2 0x69A JUMP JUMPDEST PUSH1 0x1 SLOAD DUP6 PUSH2 0x2D2 SWAP2 SWAP1 PUSH2 0x6CE JUMP JUMPDEST PUSH2 0x2DC SWAP2 SWAP1 PUSH2 0x73F JUMP JUMPDEST SWAP1 POP DUP4 PUSH1 0x0 DUP1 DUP3 DUP3 SLOAD PUSH2 0x2EF SWAP2 SWAP1 PUSH2 0x69A JUMP JUMPDEST SWAP3 POP POP DUP2 SWAP1 SSTORE POP PUSH1 0x1 SLOAD DUP2 GT ISZERO PUSH2 0x33B JUMPI PUSH1 0x40 MLOAD PUSH32 0x8C379A000000000000000000000000000000000000000000000000000000000 DUP2 MSTORE PUSH1 0x4 ADD PUSH2 0x332 SWAP1 PUSH2 0x839 JUMP JUMPDEST PUSH1 0x40 MLOAD DUP1 SWAP2 SUB SWAP1 REVERT JUMPDEST DUP1 PUSH1 0x1 PUSH1 0x0 DUP3 DUP3 SLOAD PUSH2 0x34D SWAP2 SWAP1 PUSH2 0x859 JUMP JUMPDEST SWAP3 POP POP DUP2 SWAP1 SSTORE POP PUSH1 0x1 SWAP2 POP POP PUSH2 0x496 JUMP JUMPDEST PUSH32 0x0 PUSH20 0xFFFFFFFFFFFFFFFFFFFFFFFFFFFFFFFFFFFFFFFF AND DUP3 PUSH20 0xFFFFFFFFFFFFFFFFFFFFFFFFFFFFFFFFFFFFFFFF AND SUB PUSH2 0x45B JUMPI PUSH1 0x0 DUP4 PUSH1 0x1 SLOAD PUSH2 0x3C1 SWAP2 SWAP1 PUSH2 0x69A JUMP JUMPDEST PUSH1 0x0 SLOAD DUP6 PUSH2 0x3CF SWAP2 SWAP1 PUSH2 0x6CE JUMP JUMPDEST PUSH2 0x3D9 SWAP2 SWAP1 PUSH2 0x73F JUMP JUMPDEST SWAP1 POP DUP4 PUSH1 0x1 PUSH1 0x0 DUP3 DUP3 SLOAD PUSH2 0x3ED SWAP2 SWAP1 PUSH2 0x69A JUMP JUMPDEST SWAP3 POP POP DUP2 SWAP1 SSTORE POP PUSH1 0x0 SLOAD DUP2 GT ISZERO PUSH2 0x439 JUMPI PUSH1 0x40 MLOAD PUSH32 0x8C379A000000000000000000000000000000000000000000000000000000000 DUP2 MSTORE PUSH1 0x4 ADD PUSH2 0x430 SWAP1 PUSH2 0x839 JUMP JUMPDEST PUSH1 0x40 MLOAD DUP1 SWAP2 SUB SWAP1 REVERT JUMPDEST DUP1 PUSH1 0x0 DUP1 DUP3 DUP3 SLOAD PUSH2 0x44A SWAP2 SWAP1 PUSH2 0x859 JUMP JUMPDEST SWAP3 POP POP DUP2 SWAP1 SSTORE POP PUSH1 0x1 SWAP2 POP POP PUSH2 0x496 JUMP JUMPDEST PUSH1 0x40 MLOAD PUSH32 0x8C379A000000000000000000000000000000000000000000000000000000000 DUP2 MSTORE PUSH1 0x4 ADD PUSH2 0x48D SWAP1 PUSH2 0x8D9 JUMP JUMPDEST PUSH1 0x40 MLOAD DUP1 SWAP2 SUB SWAP1 REVERT JUMPDEST SWAP3 SWAP2 POP POP JUMP JUMPDEST PUSH1 0x0 PUSH20 0xFFFFFFFFFFFFFFFFFFFFFFFFFFFFFFFFFFFFFFFF DUP3 AND SWAP1 POP SWAP2 SWAP1 POP JUMP JUMPDEST PUSH1 0x0 PUSH2 0x4C7 DUP3 PUSH2 0x49C JUMP JUMPDEST SWAP1 POP SWAP2 SWAP1 POP JUMP JUMPDEST PUSH2 0x4D7 DUP2 PUSH2 0x4BC JUMP JUMPDEST DUP3 MSTORE POP POP JUMP JUMPDEST PUSH1 0x0 PUSH1 0x20 DUP3 ADD SWAP1 POP PUSH2 0x4F2 PUSH1 0x0 DUP4 ADD DUP5 PUSH2 0x4CE JUMP JUMPDEST SWAP3 SWAP2 POP POP JUMP JUMPDEST PUSH1 0x0 DUP1 REVERT JUMPDEST PUSH1 0x0 DUP2 SWAP1 POP SWAP2 SWAP1 POP JUMP JUMPDEST PUSH2 0x510 DUP2 PUSH2 0x4FD JUMP JUMPDEST DUP2 EQ PUSH2 0x51B JUMPI PUSH1 0x0 DUP1 REVERT JUMPDEST POP JUMP JUMPDEST PUSH1 0x0 DUP2 CALLDATALOAD SWAP1 POP PUSH2 0x52D DUP2 PUSH2 0x507 JUMP JUMPDEST SWAP3 SWAP2 POP POP JUMP JUMPDEST PUSH1 0x0 DUP2 ISZERO ISZERO SWAP1 POP SWAP2 SWAP1 POP JUMP JUMPDEST PUSH2 0x548 DUP2 PUSH2 0x533 JUMP JUMPDEST DUP2 EQ PUSH2 0x553 JUMPI PUSH1 0x0 DUP1 REVERT JUMPDEST POP JUMP JUMPDEST PUSH1 0x0 DUP2 CALLDATALOAD SWAP1 POP PUSH2 0x565 DUP2 PUSH2 0x53F JUMP JUMPDEST SWAP3 SWAP2 POP POP JUMP JUMPDEST PUSH1 0x0 DUP1 PUSH1 0x40 DUP4 DUP6 SUB SLT ISZERO PUSH2 0x582 JUMPI PUSH2 0x581 PUSH2 0x4F8 JUMP JUMPDEST JUMPDEST PUSH1 0x0 PUSH2 0x590 DUP6 DUP3 DUP7 ADD PUSH2 0x51E JUMP JUMPDEST SWAP3 POP POP PUSH1 0x20 PUSH2 0x5A1 DUP6 DUP3 DUP7 ADD PUSH2 0x556 JUMP JUMPDEST SWAP2 POP POP SWAP3 POP SWAP3 SWAP1 POP JUMP JUMPDEST PUSH2 0x5B4 DUP2 PUSH2 0x4FD JUMP JUMPDEST DUP3 MSTORE POP POP JUMP JUMPDEST PUSH1 0x0 PUSH1 0x20 DUP3 ADD SWAP1 POP PUSH2 0x5CF PUSH1 0x0 DUP4 ADD DUP5 PUSH2 0x5AB JUMP JUMPDEST SWAP3 SWAP2 POP POP JUMP JUMPDEST PUSH2 0x5DE DUP2 PUSH2 0x4BC JUMP JUMPDEST DUP2 EQ PUSH2 0x5E9 JUMPI PUSH1 0x0 DUP1 REVERT JUMPDEST POP JUMP JUMPDEST PUSH1 0x0 DUP2 CALLDATALOAD SWAP1 POP PUSH2 0x5FB DUP2 PUSH2 0x5D5 JUMP JUMPDEST SWAP3 SWAP2 POP POP JUMP JUMPDEST PUSH1 0x0 DUP1 PUSH1 0x40 DUP4 DUP6 SUB SLT ISZERO PUSH2 0x618 JUMPI PUSH2 0x617 PUSH2 0x4F8 JUMP JUMPDEST JUMPDEST PUSH1 0x0 PUSH2 0x626 DUP6 DUP3 DUP7 ADD PUSH2 0x51E JUMP JUMPDEST SWAP3 POP POP PUSH1 0x20 PUSH2 0x637 DUP6 DUP3 DUP7 ADD PUSH2 0x5EC JUMP JUMPDEST SWAP2 POP POP SWAP3 POP SWAP3 SWAP1 POP JUMP JUMPDEST PUSH2 0x64A DUP2 PUSH2 0x533 JUMP JUMPDEST DUP3 MSTORE POP POP JUMP JUMPDEST PUSH1 0x0 PUSH1 0x20 DUP3 ADD SWAP1 POP PUSH2 0x665 PUSH1 0x0 DUP4 ADD DUP5 PUSH2 0x641 JUMP JUMPDEST SWAP3 SWAP2 POP POP JUMP JUMPDEST PUSH32 0x4E487B7100000000000000000000000000000000000000000000000000000000 PUSH1 0x0 MSTORE PUSH1 0x11 PUSH1 0x4 MSTORE PUSH1 0x24 PUSH1 0x0 REVERT JUMPDEST PUSH1 0x0 PUSH2 0x6A5 DUP3 PUSH2 0x4FD JUMP JUMPDEST SWAP2 POP PUSH2 0x6B0 DUP4 PUSH2 0x4FD JUMP JUMPDEST SWAP3 POP DUP3 DUP3 ADD SWAP1 POP DUP1 DUP3 GT ISZERO PUSH2 0x6C8 JUMPI PUSH2 0x6C7 PUSH2 0x66B JUMP JUMPDEST JUMPDEST SWAP3 SWAP2 POP POP JUMP JUMPDEST PUSH1 0x0 PUSH2 0x6D9 DUP3 PUSH2 0x4FD JUMP JUMPDEST SWAP2 POP PUSH2 0x6E4 DUP4 PUSH2 0x4FD JUMP JUMPDEST SWAP3 POP DUP3 DUP3 MUL PUSH2 0x6F2 DUP2 PUSH2 0x4FD JUMP JUMPDEST SWAP2 POP DUP3 DUP3 DIV DUP5 EQ DUP4 ISZERO OR PUSH2 0x709 JUMPI PUSH2 0x708 PUSH2 0x66B JUMP JUMPDEST JUMPDEST POP SWAP3 SWAP2 POP POP JUMP JUMPDEST PUSH32 0x4E487B7100000000000000000000000000000000000000000000000000000000 PUSH1 0x0 MSTORE PUSH1 0x12 PUSH1 0x4 MSTORE PUSH1 0x24 PUSH1 0x0 REVERT JUMPDEST PUSH1 0x0 PUSH2 0x74A DUP3 PUSH2 0x4FD JUMP JUMPDEST SWAP2 POP PUSH2 0x755 DUP4 PUSH2 0x4FD JUMP JUMPDEST SWAP3 POP DUP3 PUSH2 0x765 JUMPI PUSH2 0x764 PUSH2 0x710 JUMP JUMPDEST JUMPDEST DUP3 DUP3 DIV SWAP1 POP SWAP3 SWAP2 POP POP JUMP JUMPDEST PUSH1 0x0 DUP3 DUP3 MSTORE PUSH1 0x20 DUP3 ADD SWAP1 POP SWAP3 SWAP2 POP POP JUMP JUMPDEST PUSH32 0x7A65726F20696E00000000000000000000000000000000000000000000000000 PUSH1 0x0 DUP3 ADD MSTORE POP JUMP JUMPDEST PUSH1 0x0 PUSH2 0x7B7 PUSH1 0x7 DUP4 PUSH2 0x770 JUMP JUMPDEST SWAP2 POP PUSH2 0x7C2 DUP3 PUSH2 0x781 JUMP JUMPDEST PUSH1 0x20 DUP3 ADD SWAP1 POP SWAP2 SWAP1 POP JUMP JUMPDEST PUSH1 0x0 PUSH1 0x20 DUP3 ADD SWAP1 POP DUP2 DUP2 SUB PUSH1 0x0 DUP4 ADD MSTORE PUSH2 0x7E6 DUP2 PUSH2 0x7AA JUMP JUMPDEST SWAP1 POP SWAP2 SWAP1 POP JUMP JUMPDEST PUSH32 0x696E73756666696369656E74206C697100000000000000000000000000000000 PUSH1 0x0 DUP3 ADD MSTORE POP JUMP JUMPDEST PUSH1 0x0 PUSH2 0x823 PUSH1 0x10 DUP4 PUSH2 0x770 JUMP JUMPDEST SWAP2 POP PUSH2 0x82E DUP3 PUSH2 0x7ED JUMP JUMPDEST PUSH1 0x20 DUP3 ADD SWAP1 POP SWAP2 SWAP1 POP JUMP JUMPDEST PUSH1 0x0 PUSH1 0x20 DUP3 ADD SWAP1 POP DUP2 DUP2 SUB PUSH1 0x0 DUP4 ADD MSTORE PUSH2 0x852 DUP2 PUSH2 0x816 JUMP JUMPDEST SWAP1 POP SWAP2 SWAP1 POP JUMP JUMPDEST PUSH1 0x0 PUSH2 0x864 DUP3 PUSH2 0x4FD JUMP JUMPDEST SWAP2 POP PUSH2 0x86F DUP4 PUSH2 0x4FD JUMP JUMPDEST SWAP3 POP DUP3 DUP3 SUB SWAP1 POP DUP2 DUP2 GT ISZERO PUSH2 0x887 JUMPI PUSH2 0x886 PUSH2 0x66B JUMP JUMPDEST JUMPDEST SWAP3 SWAP2 POP POP JUMP JUMPDEST PUSH32 0x62616420746F6B656E0000000000000000000000000000000000000000000000 PUSH1 0x0 DUP3 ADD MSTORE POP JUMP JUMPDEST PUSH1 0x0 PUSH2 0x8C3 PUSH1 0x9 DUP4 PUSH2 0x770 JUMP JUMPDEST SWAP2 POP PUSH2 0x8CE DUP3 PUSH2 0x88D JUMP JUMPDEST PUSH1 0x20 DUP3 ADD SWAP1 POP SWAP2 SWAP1 POP JUMP JUMPDEST PUSH1 0x0 PUSH1 0x20 DUP3 ADD SWAP1 POP DUP2 DUP2 SUB PUSH1 0x0 DUP4 ADD MSTORE PUSH2 0x8F2 DUP2 PUSH2 0x8B6 JUMP JUMPDEST SWAP1 POP SWAP2 SWAP1 POP JUMP INVALID LOG2 PUSH5 0x6970667358 0x22 SLT KECCAK256 0xFB 0xCF 0xBE 0x2D 0xF9 SELFBALANCE INVALID PUSH32 0xBA4CCE423E57E0EE9EE75D2BCF8BEBB65DF6A90A2437155164736F6C63430008 EQ STOP CALLER "},"methodIdentifiers":{"getAmountOut(uint256,bool)":"11106ee2","reserve0()":"443cb4bc","reserve1()":"5a76f25e","swap(uint256,address)":"d3986f08","token0()":"0dfe1681","token1()":"d21220a7"}}}}}