{
  "_format": "hh-sol-artifact-1",
  "contractName": "DexAggregator",
  "sourceName": "contracts/DexAggregator.sol",
  "abi": [
    {
      "inputs": [
        {
          "internalType": "address",
          "name": "_a",
          "type": "address"
        },
        {
          "internalType": "address",
          "name": "_b",
          "type": "address"
        }
      ],
      "stateMutability": "nonpayable",
      "type": "constructor"
    },
    {
      "inputs": [],
      "name": "BadAMM",
      "type": "error"
    },
    {
      "inputs": [],
      "name": "SameAMM",
      "type": "error"
    },
    {
      "anonymous": false,
      "inputs": [
        {
          "indexed": false,
          "internalType": "uint256",
          "name": "amountIn",
          "type": "uint256"
        },
        {
          "indexed": false,
          "internalType": "bool",
          "name": "zeroForOne",
          "type": "bool"
        },
        {
          "indexed": false,
          "internalType": "uint256",
          "name": "outA",
          "type": "uint256"
        },
        {
          "indexed": false,
          "internalType": "uint256",
          "name": "outB",
          "type": "uint256"
        },
        {
          "indexed": false,
          "internalType": "uint8",
          "name": "best",
          "type": "uint8"
        }
      ],
      "name": "Quoted",
      "type": "event"
    },
    {
      "inputs": [],
      "name": "ammA",
      "outputs": [
        {
          "internalType": "contract IAMM",
          "name": "",
          "type": "address"
        }
      ],
      "stateMutability": "view",
      "type": "function"
    },
    {
      "inputs": [],
      "name": "ammB",
      "outputs": [
        {
          "internalType": "contract IAMM",
          "name": "",
          "type": "address"
        }
      ],
      "stateMutability": "view",
      "type": "function"
    },
    {
      "inputs": [
        {
          "internalType": "uint256",
          "name": "amountIn",
          "type": "uint256"
        },
        {
          "internalType": "bool",
          "name": "zeroForOne",
          "type": "bool"
        }
      ],
      "name": "bestQuote",
      "outputs": [
        {
          "internalType": "uint256",
          "name": "outA",
          "type": "uint256"
        },
        {
          "internalType": "uint256",
          "name": "outB",
          "type": "uint256"
        },
        {
          "internalType": "uint8",
          "name": "best",
          "type": "uint8"
        }
      ],
      "stateMutability": "view",
      "type": "function"
    },
    {
      "inputs": [
        {
          "internalType": "uint256",
          "name": "amountIn",
          "type": "uint256"
        },
        {
          "internalType": "bool",
          "name": "zeroForOne",
          "type": "bool"
        }
      ],
      "name": "quoteBoth",
      "outputs": [
        {
          "internalType": "uint256",
          "name": "outA",
          "type": "uint256"
        },
        {
          "internalType": "uint256",
          "name": "outB",
          "type": "uint256"
        }
      ],
      "stateMutability": "view",
      "type": "function"
    }
  ],
  "bytecode": "0x60c060405234801561001057600080fd5b506040516107f73803806107f783398181016040528101906100329190610207565b600073ffffffffffffffffffffffffffffffffffffffff168273ffffffffffffffffffffffffffffffffffffffff1614806100995750600073ffffffffffffffffffffffffffffffffffffffff168173ffffffffffffffffffffffffffffffffffffffff16145b156100d0576040517fe9c9bfc300000000000000000000000000000000000000000000000000000000815260040160405180910390fd5b8073ffffffffffffffffffffffffffffffffffffffff168273ffffffffffffffffffffffffffffffffffffffff1603610135576040517f09bca8c200000000000000000000000000000000000000000000000000000000815260040160405180910390fd5b8173ffffffffffffffffffffffffffffffffffffffff1660808173ffffffffffffffffffffffffffffffffffffffff16815250508073ffffffffffffffffffffffffffffffffffffffff1660a08173ffffffffffffffffffffffffffffffffffffffff16815250505050610247565b600080fd5b600073ffffffffffffffffffffffffffffffffffffffff82169050919050565b60006101d4826101a9565b9050919050565b6101e4816101c9565b81146101ef57600080fd5b50565b600081519050610201816101db565b92915050565b6000806040838503121561021e5761021d6101a4565b5b600061022c858286016101f2565b925050602061023d858286016101f2565b9150509250929050565b60805160a05161057d61027a6000396000818161020101526102af01526000818161015a01526102d3015261057d6000f3fe608060405234801561001057600080fd5b506004361061004c5760003560e01c80633b291c81146100515780634847ae8714610083578063c74eac68146100b4578063ebb3c442146100d2575b600080fd5b61006b60048036038101906100669190610368565b6100f0565b60405161007a939291906103d3565b60405180910390f35b61009d60048036038101906100989190610368565b610155565b6040516100ab92919061040a565b60405180910390f35b6100bc6102ad565b6040516100c991906104b2565b60405180910390f35b6100da6102d1565b6040516100e791906104b2565b60405180910390f35b60008060006100ff8585610155565b80935081945050506000831480156101175750600082145b15610125576000905061014e565b81831115610136576001905061014d565b82821115610147576002905061014c565b600090505b5b5b9250925092565b6000807f000000000000000000000000000000000000000000000000000000000000000073ffffffffffffffffffffffffffffffffffffffff166311106ee285856040518363ffffffff1660e01b81526004016101b39291906104dc565b602060405180830381865afa9250505080156101ed57506040513d601f19601f820116820180604052508101906101ea919061051a565b60015b6101fa57600091506101ff565b809250505b7f000000000000000000000000000000000000000000000000000000000000000073ffffffffffffffffffffffffffffffffffffffff166311106ee285856040518363ffffffff1660e01b815260040161025a9291906104dc565b602060405180830381865afa92505050801561029457506040513d601f19601f82011682018060405250810190610291919061051a565b60015b6102a157600090506102a6565b809150505b9250929050565b7f000000000000000000000000000000000000000000000000000000000000000081565b7f000000000000000000000000000000000000000000000000000000000000000081565b600080fd5b6000819050919050565b61030d816102fa565b811461031857600080fd5b50565b60008135905061032a81610304565b92915050565b60008115159050919050565b61034581610330565b811461035057600080fd5b50565b6000813590506103628161033c565b92915050565b6000806040838503121561037f5761037e6102f5565b5b600061038d8582860161031b565b925050602061039e85828601610353565b9150509250929050565b6103b1816102fa565b82525050565b600060ff82169050919050565b6103cd816103b7565b82525050565b60006060820190506103e860008301866103a8565b6103f560208301856103a8565b61040260408301846103c4565b949350505050565b600060408201905061041f60008301856103a8565b61042c60208301846103a8565b9392505050565b600073ffffffffffffffffffffffffffffffffffffffff82169050919050565b6000819050919050565b600061047861047361046e84610433565b610453565b610433565b9050919050565b600061048a8261045d565b9050919050565b600061049c8261047f565b9050919050565b6104ac81610491565b82525050565b60006020820190506104c760008301846104a3565b92915050565b6104d681610330565b82525050565b60006040820190506104f160008301856103a8565b6104fe60208301846104cd565b9392505050565b60008151905061051481610304565b92915050565b6000602082840312156105305761052f6102f5565b5b600061053e84828501610505565b9150509291505056fea26469706673582212201edc77d452c7e7625da0d6e1369350da4aebdc8f86625e6fed42a7f7a35aaf5564736f6c63430008140033",
  "linkReferences": {},
  "deployedLinkReferences": {}
}