{
  "_format": "hh-sol-artifact-1",
  "contractName": "SimpleCPAMM",
  "sourceName": "contracts/amm/SimpleCPAMM.sol",
  "abi": [
    {
      "inputs": [
        {
          "internalType": "address",
          "name": "_token0",
          "type": "address"
        },
        {
          "internalType": "address",
          "name": "_token1",
          "type": "address"
        },
        {
          "internalType": "uint256",
          "name": "_r0",
          "type": "uint256"
        },
        {
          "internalType": "uint256",
          "name": "_r1",
          "type": "uint256"
        }
      ],
      "stateMutability": "nonpayable",
      "type": "constructor"
    },
    {
      "inputs": [
        {
          "internalType": "uint256",
          "name": "amountIn",
          "type": "uint256"
        },
        {
          "internalType": "bool",
          "name": "zeroForOne",
          "type": "bool"
        }
      ],
      "name": "getAmountOut",
      "outputs": [
        {
          "internalType": "uint256",
          "name": "",
          "type": "uint256"
        }
      ],
      "stateMutability": "view",
      "type": "function"
    },
    {
      "inputs": [],
      "name": "reserve0",
      "outputs": [
        {
          "internalType": "uint256",
          "name": "",
          "type": "uint256"
        }
      ],
      "stateMutability": "view",
      "type": "function"
    },
    {
      "inputs": [],
      "name": "reserve1",
      "outputs": [
        {
          "internalType": "uint256",
          "name": "",
          "type": "uint256"
        }
      ],
      "stateMutability": "view",
      "type": "function"
    },
    {
      "inputs": [
        {
          "internalType": "uint256",
          "name": "amountIn",
          "type": "uint256"
        },
        {
          "internalType": "address",
          "name": "tokenIn",
          "type": "address"
        }
      ],
      "name": "swap",
      "outputs": [
        {
          "internalType": "bool",
          "name": "",
          "type": "bool"
        }
      ],
      "stateMutability": "nonpayable",
      "type": "function"
    },
    {
      "inputs": [],
      "name": "token0",
      "outputs": [
        {
          "internalType": "address",
          "name": "",
          "type": "address"
        }
      ],
      "stateMutability": "view",
      "type": "function"
    },
    {
      "inputs": [],
      "name": "token1",
      "outputs": [
        {
          "internalType": "address",
          "name": "",
          "type": "address"
        }
      ],
      "stateMutability": "view",
      "type": "function"
    }
  ],
  "bytecode": "0x60c06040523480156200001157600080fd5b5060405162000d5f38038062000d5f833981810160405281019062000037919062000295565b600073ffffffffffffffffffffffffffffffffffffffff168473ffffffffffffffffffffffffffffffffffffffff1614158015620000a25750600073ffffffffffffffffffffffffffffffffffffffff168373ffffffffffffffffffffffffffffffffffffffff1614155b8015620000db57508273ffffffffffffffffffffffffffffffffffffffff168473ffffffffffffffffffffffffffffffffffffffff1614155b6200011d576040517f08c379a0000000000000000000000000000000000000000000000000000000008152600401620001149062000368565b60405180910390fd5b6000821180156200012e5750600081115b62000170576040517f08c379a00000000000000000000000000000000000000000000000000000000081526004016200016790620003da565b60405180910390fd5b8373ffffffffffffffffffffffffffffffffffffffff1660808173ffffffffffffffffffffffffffffffffffffffff16815250508273ffffffffffffffffffffffffffffffffffffffff1660a08173ffffffffffffffffffffffffffffffffffffffff1681525050816000819055508060018190555050505050620003fc565b600080fd5b600073ffffffffffffffffffffffffffffffffffffffff82169050919050565b60006200022282620001f5565b9050919050565b620002348162000215565b81146200024057600080fd5b50565b600081519050620002548162000229565b92915050565b6000819050919050565b6200026f816200025a565b81146200027b57600080fd5b50565b6000815190506200028f8162000264565b92915050565b60008060008060808587031215620002b257620002b1620001f0565b5b6000620002c28782880162000243565b9450506020620002d58782880162000243565b9350506040620002e8878288016200027e565b9250506060620002fb878288016200027e565b91505092959194509250565b600082825260208201905092915050565b7f62616420746f6b656e7300000000000000000000000000000000000000000000600082015250565b600062000350600a8362000307565b91506200035d8262000318565b602082019050919050565b60006020820190508181036000830152620003838162000341565b9050919050565b7f6261642072657365727665730000000000000000000000000000000000000000600082015250565b6000620003c2600c8362000307565b9150620003cf826200038a565b602082019050919050565b60006020820190508181036000830152620003f581620003b3565b9050919050565b60805160a05161092f62000430600039600081816101fb01526103600152600081816101410152610263015261092f6000f3fe608060405234801561001057600080fd5b50600436106100625760003560e01c80630dfe16811461006757806311106ee214610085578063443cb4bc146100b55780635a76f25e146100d3578063d21220a7146100f1578063d3986f081461010f575b600080fd5b61006f61013f565b60405161007c91906104dd565b60405180910390f35b61009f600480360381019061009a919061056b565b610163565b6040516100ac91906105ba565b60405180910390f35b6100bd6101ed565b6040516100ca91906105ba565b60405180910390f35b6100db6101f3565b6040516100e891906105ba565b60405180910390f35b6100f96101f9565b60405161010691906104dd565b60405180910390f35b61012960048036038101906101249190610601565b61021d565b6040516101369190610650565b60405180910390f35b7f000000000000000000000000000000000000000000000000000000000000000081565b600080830361017557600090506101e7565b81156101b357600080549050600060015490508482610194919061069a565b81866101a091906106ce565b6101aa919061073f565b925050506101e7565b6000600154905060008054905084826101cc919061069a565b81866101d891906106ce565b6101e2919061073f565b925050505b92915050565b60005481565b60015481565b7f000000000000000000000000000000000000000000000000000000000000000081565b6000808311610261576040517f08c379a0000000000000000000000000000000000000000000000000000000008152600401610258906107cd565b60405180910390fd5b7f000000000000000000000000000000000000000000000000000000000000000073ffffffffffffffffffffffffffffffffffffffff168273ffffffffffffffffffffffffffffffffffffffff160361035e576000836000546102c4919061069a565b600154856102d291906106ce565b6102dc919061073f565b9050836000808282546102ef919061069a565b9250508190555060015481111561033b576040517f08c379a000000000000000000000000000000000000000000000000000000000815260040161033290610839565b60405180910390fd5b806001600082825461034d9190610859565b925050819055506001915050610496565b7f000000000000000000000000000000000000000000000000000000000000000073ffffffffffffffffffffffffffffffffffffffff168273ffffffffffffffffffffffffffffffffffffffff160361045b576000836001546103c1919061069a565b600054856103cf91906106ce565b6103d9919061073f565b905083600160008282546103ed919061069a565b92505081905550600054811115610439576040517f08c379a000000000000000000000000000000000000000000000000000000000815260040161043090610839565b60405180910390fd5b8060008082825461044a9190610859565b925050819055506001915050610496565b6040517f08c379a000000000000000000000000000000000000000000000000000000000815260040161048d906108d9565b60405180910390fd5b92915050565b600073ffffffffffffffffffffffffffffffffffffffff82169050919050565b60006104c78261049c565b9050919050565b6104d7816104bc565b82525050565b60006020820190506104f260008301846104ce565b92915050565b600080fd5b6000819050919050565b610510816104fd565b811461051b57600080fd5b50565b60008135905061052d81610507565b92915050565b60008115159050919050565b61054881610533565b811461055357600080fd5b50565b6000813590506105658161053f565b92915050565b60008060408385031215610582576105816104f8565b5b60006105908582860161051e565b92505060206105a185828601610556565b9150509250929050565b6105b4816104fd565b82525050565b60006020820190506105cf60008301846105ab565b92915050565b6105de816104bc565b81146105e957600080fd5b50565b6000813590506105fb816105d5565b92915050565b60008060408385031215610618576106176104f8565b5b60006106268582860161051e565b9250506020610637858286016105ec565b9150509250929050565b61064a81610533565b82525050565b60006020820190506106656000830184610641565b92915050565b7f4e487b7100000000000000000000000000000000000000000000000000000000600052601160045260246000fd5b60006106a5826104fd565b91506106b0836104fd565b92508282019050808211156106c8576106c761066b565b5b92915050565b60006106d9826104fd565b91506106e4836104fd565b92508282026106f2816104fd565b915082820484148315176107095761070861066b565b5b5092915050565b7f4e487b7100000000000000000000000000000000000000000000000000000000600052601260045260246000fd5b600061074a826104fd565b9150610755836104fd565b92508261076557610764610710565b5b828204905092915050565b600082825260208201905092915050565b7f7a65726f20696e00000000000000000000000000000000000000000000000000600082015250565b60006107b7600783610770565b91506107c282610781565b602082019050919050565b600060208201905081810360008301526107e6816107aa565b9050919050565b7f696e73756666696369656e74206c697100000000000000000000000000000000600082015250565b6000610823601083610770565b915061082e826107ed565b602082019050919050565b6000602082019050818103600083015261085281610816565b9050919050565b6000610864826104fd565b915061086f836104fd565b92508282039050818111156108875761088661066b565b5b92915050565b7f62616420746f6b656e0000000000000000000000000000000000000000000000600082015250565b60006108c3600983610770565b91506108ce8261088d565b602082019050919050565b600060208201905081810360008301526108f2816108b6565b905091905056fea2646970667358221220fbcfbe2df947fe7fba4cce423e57e0ee9ee75d2bcf8bebb65df6a90a2437155164736f6c63430008140033",
  "linkReferences": {},
  "deployedLinkReferences": {}
}